:020000040000FA
:10000000000200104D0100005501000057010000E2
:10001000590100005B0100005D01000000000000CC
:100020000000000000000000000000005F01000070
:100030006101000000000000630100006501000094
:100040006701000067010000670100006701000010
:100050006701000067010000670100006701000000
:1000600067010000670100006701000067010000F0
:1000700067010000670100006701000067010000E0
:1000800067010000670100006701000067010000D0
:1000900067010000670100006701000067010000C0
:1000A00067010000670100006701000067010000B0
:1000B00067010000670100006701000067010000A0
:1000C00067010000670100006701000000F002F80E
:1000D00000F02CF80AA090E8000C82448344AAF1B6
:1000E0000107DA4501D100F021F8AFF2090EBAE8B4
:1000F0000F0013F0010F18BFFB1A43F0010318475C
:10010000D4010000F4010000002300240025002693
:10011000103A28BF78C1FBD8520728BF30C148BF6A
:100120000B6070471FB51FBD10B510BD00F02FF854
:100130001146FFF7F7FF00F0B7F800F04DF803B4F1
:10014000FFF7F2FF03BC00F055F8000009488047B4
:1001500009480047FEE7FEE7FEE7FEE7FEE7FEE7A9
:10016000FEE7FEE7FEE7FEE704480549034A054BC4
:100170007047000001030000CD00000060C00720B0
:10018000000200100000001070477047704775466D
:1001900000F02CF8AE4605006946534620F00700F3
:1001A000854618B020B5FFF7DFFFBDE820404FF0CF
:1001B00000064FF000074FF000084FF0000B21F051
:1001C0000701AC46ACE8C009ACE8C009ACE8C0091E
:1001D000ACE8C0098D46704710B50446AFF3008007
:1001E0002046BDE81040FFF7AABF00000048704756
:1001F00000C0072001491820ABBEFEE72600020020
:100200007047002007E0002101E04A1CD1B20A2912
:10021000FBDB411C88B24FF6FF718842F3DB70476D
:1002200070B506460C46304600F004F8054605B1A8
:10023000EC6170BD01460020052912D2DFE801F013
:100240000305080B0E0008480CE00748203009E0C1
:100250000548403006E00448603003E00248803042
:1002600000E000BF00BF704700C009202DE9F04149
:1002700007460D4616463846FFF7DCFF04463CB1FC
:100280001EB120682843206002E02068A843206057
:10029000BDE8F08170B506460C463046FFF7CAFF50
:1002A000054605B1AC6170BD012211041046FFF78F
:1002B000DDFF0DE04FF480310120FFF7EBFFFFF78A
:1002C000A0FF4FF480310120FFF7AAFFFFF799FF4D
:1002D000F0E70000D803000000000010000200005A
:1002E00008010000D803000000C0072060000000E3
:1002F000080100000000000000000000FFFFFFFFF9
:100300002020324908603248D0F8A00100F02000D7
:1003100030B100BF2D48006800F040000028F9D03F
:1003200003202A499C39086000202949C1F8A80106
:1003300026490C3108600120244994390860254879
:10034000234984310860AA2021498C310860552056
:10035000086001201E4980310860AA201C498C31A8
:10036000086055201A49C1F88C0000BF1848883031
:10037000006800F080600028F8D003201449803124
:100380000860AA201249C1F88C00552010498C3110
:10039000086000BF0E488830006800F04070B0F17F
:1003A000407FF7D100200949983908604FF4004098
:1003B0000749C1F8C4000020C1F8C8010846006818
:1003C00020F4704040F4804008607047A0C10F40A6
:0803D00000C00F4063000500AE
:04000005000000CD2A
:00000001FF
