:020000040000FA
:10000000000200104D0100005501000057010000E2
:10001000590100005B0100005D01000000000000CC
:100020000000000000000000000000005F01000070
:100030006101000000000000630100006501000094
:100040006701000067010000670100006701000010
:100050006701000067010000670100006701000000
:1000600067010000670100006701000067010000F0
:1000700067010000670100006701000067010000E0
:1000800067010000670100006701000067010000D0
:1000900067010000670100006701000067010000C0
:1000A00067010000670100006701000067010000B0
:1000B00067010000670100006701000067010000A0
:1000C00067010000670100006701000000F002F80E
:1000D00000F02CF80AA090E8000C82448344AAF1B6
:1000E0000107DA4501D100F021F8AFF2090EBAE8B4
:1000F0000F0013F0010F18BFFB1A43F0010318475C
:100100000806000028060000002300240025002621
:10011000103A28BF78C1FBD8520728BF30C148BF6A
:100120000B6070471FB51FBD10B510BD00F02FF854
:100130001146FFF7F7FF00F0B3F900F04DF803B4F4
:10014000FFF7F2FF03BC00F055F8000009488047B4
:1001500009480047FEE7FEE7FEE7FEE7FEE7FEE7A9
:10016000FEE7FEE7FEE7FEE704480549034A054BC4
:100170007047000061030000CD00000060C0072050
:10018000000200100000001070477047704775466D
:1001900000F02CF8AE4605006946534620F00700F3
:1001A000854618B020B5FFF7DFFFBDE820404FF0CF
:1001B00000064FF000074FF000084FF0000B21F051
:1001C0000701AC46ACE8C009ACE8C009ACE8C0091E
:1001D000ACE8C0098D46704710B50446AFF3008007
:1001E0002046BDE81040FFF7AABF00000048704756
:1001F00000C0072001491820ABBEFEE72600020020
:100200007047002001E0411C88B249F64041884215
:10021000F9DB70472DE9F04107460C461546384694
:1002200000F00AF8064626B1032C02DC06F11C0099
:100230000555BDE8F081000001460020052912D2D5
:10024000DFE801F00305080B0E0008480CE0074842
:10025000203009E00548403006E00448603003E003
:100260000248803000E000BF00BF704700C0092096
:100270002DE9F04180460C4616461F464046FFF7E2
:10028000DBFF05465DB12FB1032C08DC285D304350
:10029000285504E0032C02DC285DB0432855BDE856
:1002A000F0812DE9F04107460C4615463846FFF728
:1002B000C3FF064626B1032C02DC06F118000555E3
:1002C000BDE8F08170B506460C46304600F018F8DF
:1002D000054605B1EC6170BD70B506460C4630466A
:1002E00000F00EF8054605B1AC6170BD00000000DD
:1002F000000000000000000000000000FFFFFFFF02
:1003000001460020052912D2DFE801F00305080BA1
:100310000E0008480CE00748203009E0054840304E
:1003200006E00448603003E00248803000E000BF8F
:1003300000BF704700C009202DE9F04107460D4677
:1003400016463846FFF7DCFF04463CB11EB1206874
:100350002843206002E02068A8432060BDE8F081C7
:1003600020204B4908604B48D0F8A00100F0200045
:1003700030B100BF4648006800F040000028F9D0C6
:10038000032043499C39086000204249C1F8A80174
:100390003F490C31086001203D49943908603E48CE
:1003A0003C4984310860AA203A498C3108605520C4
:1003B00008600120374980310860AA2035498C3116
:1003C000086055203349C1F88C0000BF314888309F
:1003D000006800F080600028F8D003202D498031AB
:1003E0000860AA202B49C1F88C00552029498C317E
:1003F000086000BF27488830006800F04070B0F106
:10040000407FF7D123202349A4310860AA20214945
:10041000C1F8AC0055201F49AC31086001201D49CE
:10042000A0310860AA201B49AC3108605520194949
:10043000C1F8AC0000BF1748A830006800F4806025
:100440000028F8D003201349A0310860AA201149E0
:10045000C1F8AC0055200F49AC31086000BF0D4811
:10046000A830006800F44070B0F5407FF7D10B4829
:100470000849C431086000200649C1F8C80108468F
:10048000006820F4704040F480400860704700002D
:10049000A0C10F4000C00F4063000500DE872804A4
:1004A00000240025002600270123FF2202211846F0
:1004B000FFF7DEFE01224FF4FF710220FFF73CFF41
:1004C00003E14FF480710220FFF7FCFE0221084691
:1004D000FFF702FF7D4800EBC400425D02210120CE
:1004E000FFF7DFFE794800EBC400405DC043C2B2B5
:1004F00002210120FFF78EFEFFF783FE022108464E
:10050000FFF7E0FE04210220FFF7E6FE6F4800EB54
:10051000C401681C0A5C02210120FFF7C2FE6B487F
:1005200000EBC401681C085CC043C2B20221012078
:10053000FFF770FEFFF765FE04210220FFF7C2FE01
:1005400008210220FFF7C8FE604800EBC401A81C88
:100550000A5C02210120FFF7A4FE5C4800EBC40105
:10056000A81C085CC043C2B202210120FFF752FE62
:10057000FFF747FE08210220FFF7A4FE102102200A
:10058000FFF7AAFE514800EBC401E81C0A5C0221F7
:100590000120FFF786FE4D4800EBC401E81C085C13
:1005A000C043C2B202210120FFF734FEFFF729FE4B
:1005B00010210220FFF786FE20210220FFF78CFE8B
:1005C000424800EBC401281D0A5C02210120FFF70C
:1005D00068FE3E4800EBC401281D085CC043C2B25F
:1005E00002210120FFF716FEFFF70BFE202102205B
:1005F000FFF768FE40210220FFF76EFE334800EB54
:10060000C401681D0A5C02210120FFF74AFE2F4841
:1006100000EBC401681D085CC043C2B20221012086
:10062000FFF7F8FDFFF7EDFD40210220FFF74AFE3E
:1006300080210220FFF750FE244800EBC401A81DD2
:100640000A5C02210120FFF72CFE204800EBC401C8
:10065000A81D085CC043C2B202210120FFF7DAFDE9
:10066000FFF7CFFD80210220FFF72CFE4FF48071B1
:100670000220FFF731FE154800EBC401E81D0A5CBB
:1006800002210120FFF70DFE104800EBC401E81D18
:10069000085CC043C2B202210120FFF7BBFDFFF797
:1006A000B0FD701CC6B2781CC7B2182E05D100264A
:1006B000601CC4B2062C00D10024032F05D10027F2
:1006C000681CC5B2082D00D10025FAE6D00600004E
:1006D0000000000000000000007E0A0A0A0E000070
:1006E0004020302828302040007E0A1A2A4E000080
:1006F0000000427E4200000000002E2A2A3A00003C
:10070000402030282830204028070000000000103A
:1007100000020000080100002807000000C00720B8
:08072000600000000801000068
:04000005000000CD2A
:00000001FF
