:020000040000FA
:10000000000200106901000071010000730100008E
:100010007501000077010000790100000000000078
:100020000000000000000000000000007B01000054
:100030007D010000000000007F0100008101000040
:1000400083010000830100008301000083010000A0
:100050008301000083010000830100008301000090
:100060008301000083010000830100008301000080
:100070008301000083010000830100008301000070
:100080008301000083010000830100008301000060
:100090008301000083010000830100008301000050
:1000A0008301000083010000830100008301000040
:1000B00083010000090700008301000083010000A4
:1000C00083010000830100008301000000F002F8BA
:1000D00000F03AF80AA090E8000C82448344AAF1A8
:1000E0000107DA4501D100F02FF8AFF2090EBAE8A6
:1000F0000F0013F0010F18BFFB1A43F0010318475C
:100100000009000030090000103A24BF78C878C107
:10011000FAD8520724BF30C830C144BF04680C600D
:10012000704700000023002400250026103A28BF55
:1001300078C1FBD8520728BF30C148BF0B60704759
:100140001FB51FBD10B510BD00F0A6F81146FFF792
:10015000F7FF00F0ABFB00F0C4F803B4FFF7F2FFC9
:1001600003BC00F0CDF8000009488047094800476B
:10017000FEE7FEE7FEE7FEE7FEE7FEE7FEE7FEE757
:10018000FEE7FEE704480549034A054B70470000B7
:100190006D070000CD00000068C0072000020010BD
:1001A0000000001053EA020C00F069802DE9F04BCA
:1001B0004FF00006002B1FBFB3FA83F503FA05F4D6
:1001C00024FA05F65E4012BF1643B2FA82F502FA2F
:1001D00005F4C5F120051EBF22FA05FC44EA0C0413
:1001E000203556EA044C4FEA144418BF641C4FF003
:1001F00000084FF00009904271EB030C39D300293D
:1002000019BFB1FA81F701FA07F6B0FA80F700FAE0
:1002100007F6C7F120071EBF20FA07FC46EA0C06C6
:100220002037B6FBF4FCA7EB0507103F07F01F0BC8
:10023000CBF120060CFA0BFB2CFA06F644BFB346B2
:100240000026202FA4BF5E464FF0000B5BEA060C91
:1002500008BF4FF0010B19EB0B09ABFB027C48EB1D
:100260000608C01B06FB02CC0BFB03CC71EB0C0198
:10027000C1E70B46024641464846BDE8F08B13B540
:100280004FF000004FF00001AFF30080BDE81C40CC
:100290007047704770477047754600F02BF8AE46C0
:1002A00005006946534620F00700854618B020B582
:1002B000FFF768FFBDE820404FF000064FF0000751
:1002C0004FF000084FF0000B21F00701AC46ACE8FE
:1002D000C009ACE8C009ACE8C009ACE8C0098D466B
:1002E000704710B50446AFF300802046BDE81040CB
:1002F000FFF733BF0048704708C00720FFFFFFFF2C
:1003000001491820ABBEFEE726000200704700003E
:10031000012909D10A4A12680A4B03401A43084BC3
:10032000C43BC3F8C42009E041B9054A1268054B33
:1003300083431A40024BC43BC3F8C42070470000FB
:10034000C4C00F40DEF7EFEF70B506460D480468F5
:10035000304600F019F8054635B1012D06D0022DC2
:1003600006D0032D08D105E0042505E0012503E0B2
:10037000022501E0082500BF00BFB4FBF5F42046CC
:1003800070BD000004C007200146202903D20A46A0
:10039000064B186804E0A1F12002044B1B1D1868ED
:1003A00020FA02F303F0030070470000A8C10F40D9
:1003B00010B50A46202801D2034601E0A0F120032F
:1003C0001946202810D2124B1B6803248C40A343EB
:1003D000104CC4F8A8310E4B1B6802FA01F42343F9
:1003E0000C4CC4F8A83111E0094B1B1D1B680324F9
:1003F0008C40A343074CC4F8AC31054B1B1D1B6854
:1004000002FA01F42343034CC4F8AC3110BD0000E0
:10041000A8C10F4000C00F4010B50B4800F080F994
:100420001D2000280DDB00BF00BF00F01F020121CE
:1004300091404209920002F1E022C2F8001100BF8F
:1004400000BF00BF10BD000000000B4010B5044607
:1004500000200A4908702146094800F071F901217D
:10046000074800F035F900BF044800780028FBD0A9
:100470000021034800F02CF910BD000000C0072047
:1004800000000B4010B50446A2786178207800F097
:1004900077FAE2786178207800F092FA2279617830
:1004A000207800F055FA10BD30B5012A0ED1C46C89
:1004B00001F00703012B01DA002304E001F1080336
:1004C000012505FA03F31C43C46410E0C46C01F079
:1004D0000703012B01DA002304E001F108030125E1
:1004E00005FA03F347F67C659D432C40C46430BD98
:1004F000012904D1426842F00802426003E04268E8
:1005000002F00302426070474A78012A0AD10A7851
:1005100002F0070202EB420301229A4043691A43A8
:1005200042610CE00A7802F0070202EB420301226A
:100530009A40204B23EA020243691A404261CA787A
:10054000012A0CD10A7802F0070202EB4202521C87
:10055000012303FA02F243691A4342610CE00A786C
:1005600002F0070202EB4202521C01239340114A9F
:100570009A4343691A4042618A78012A0CD10A7869
:1005800002F0070202EB4202921C012303FA02F27C
:1005900043691A4342610CE00A7802F0070202EB59
:1005A0004202921C01239340024A9A4343691A4033
:1005B00042617047FFFF1F00012904D1426842F0E9
:1005C0000102426003E0426802F00A0242607047A2
:1005D0002DE9FC5F04460E4691464D46CA46012170
:1005E0004020FFF795FE00210C20FFF7E1FE0C20D4
:1005F000FFF7AAFE4FF0000807463F2020600020CA
:10060000606020676061A062E0642065D6B92878E8
:1006100018B96868401EE06021E000213A46686829
:10062000A0FB023B01FB07B100FB08100D4ACDE91E
:1006300000300023DDE90001FFF7B4FD0746781E16
:10064000E0600CE0012E0AD19AF8010000F00301ED
:100650009AF8000061F39F00216F08432067BDE80E
:10066000FC9F000040420F0030B5072913D2DFE89D
:1006700001F00406080A0C0E100082610BE0C26152
:1006800009E0026207E0426205E0026403E04264BE
:1006900001E0826400BF00BF056D072902DA012472
:1006A0008C4000E00024254305653BB9446844F0D4
:1006B00002044460446804F00904446030BD4168A9
:1006C00041F002014160416801F009014160704759
:1006D000012904D1027A42F00802027203E0027A90
:1006E00022F00802027270470146087A00F0010009
:1006F00008B1012201E000207047087A40F00100B3
:1007000008721046F8E7000010B50348FFF7ECFF49
:1007100001200249087010BD00000B4000C00720F6
:1007200010B5044601210804FFF7F2FD4FF0FF3039
:100730002060002060600C2020720020E06010BD6E
:100740002DE9F04104460D463A20FFF7FDFD06462F
:100750004FF47A70B6FBF0F000FB05F72760207AC3
:1007600040F002002072BDE8F081000020204B49DB
:1007700008604B48D0F8A00100F0200030B100BF65
:100780004648006800F040000028F9D003204349A3
:100790009C39086000204249C1F8A8013F490C314A
:1007A000086001203D49943908603E483C49843145
:1007B0000860AA203A498C31086055200860012061
:1007C000374980310860AA2035498C3108605520AE
:1007D0003349C1F88C0000BF31488830006800F010
:1007E00080600028F8D003202D4980310860AA20BD
:1007F0002B49C1F88C00552029498C31086000BF75
:1008000027488830006800F04070B0F1407FF7D191
:1008100023202349A4310860AA202149C1F8AC0053
:1008200055201F49AC31086001201D49A0310860E6
:10083000AA201B49AC31086055201949C1F8AC0009
:1008400000BF1748A830006800F480600028F8D086
:1008500003201349A0310860AA201149C1F8AC0057
:1008600055200F49AC31086000BF0D48A830006822
:1008700000F44070B0F5407FF7D10B480849C4310F
:10088000086000200649C1F8C8010846006820F445
:10089000704040F48040086070470000A0C10F40E5
:1008A00000C00F4063000500DE87280486B0FFF714
:1008B000B3FD00208DF810000120059004AA00214E
:1008C0002248FFF785FE00208DF80D008DF80C0002
:1008D00001208DF80F0000208DF80E0003A91B48A1
:1008E000FFF712FE0023642219461848FFF7BCFEEA
:1008F000012211461548FFF7D7FD1448FFF7DFFE28
:1009000001211248FFF758FE01211048FFF7F0FDC2
:1009100001208DF8060000208DF8080002208DF8D7
:10092000070000208DF8050002208DF8040001A8C2
:10093000FFF7A8FD0023642201210448FFF794FE7D
:1009400041F28830FFF782FD00BFFEE700800140E2
:1009500030B50B460949012A07D151F8204001253D
:100960009D402C4341F8204006E051F820400125ED
:100970009D40AC4341F8204030BD000068C00240BB
:10098000F0B504460B461546194660000B4A10297F
:1009900001D31039401C52F820604FEA410C032764
:1009A00007FA0CF7BE4342F8206052F820604F006F
:1009B00005FA07F73E4342F82060F0BD00C0024050
:1009C000F0B504460B461546194660000B4A10293F
:1009D00001D31039401C52F820604FEA410C032724
:1009E00007FA0CF7BE4342F8206052F820604F002F
:1009F00005FA07F73E4342F82060F0BD40C00240D0
:100A0000300A000000C007200800000008010000B4
:100A1000300A000000000010000200002401000065
:100A2000380A000008C00720600000002401000010
:080A30000000000000E1F505E3
:04000005000000CD2A
:00000001FF
